:100000009000E1758901C28CC28D75300975A0C060
:10001000C291C292C2900075A0381200AD75A00FB7
:0F0020001200AD75A0011200AD75A0061200AD63
:10002F0075A0C01200ADD2921200751200A074001C
:10003F0093F5A01200ADF5A01200AD1200A0740050
:0F004F0030960ED530FA1200C61200A075300997
:0F005E0080EF309708D530E975300980E47400E1
:0E006D00D530DF75300980DA75A04A1200AD7B
:0F007B0075A06F1200AD75A0681200AD75A06E74
:0F008A001200AD75A0201200AD75A04E1200AD92
:0E00990075A02E1200AD2275A080C292C290FA
:1000A7001200ADD29222D29000C2900022758CD855
:0F00B700758CF0D28C1200C022308DFDC28D22CC
:1000C6002401D4F58054F0C493F5A01200ADE58068
:1000D600540F93F5A01200ADE5802230313233344F
:0500E600353637383902
:00000001FF
